{
    "_format": "hh-sol-artifact-1",
    "contractName": "FidometaV2",
    "sourceName": "contracts/FixedFidometa.sol",
    "abi": [
        {
            "inputs": [],
            "stateMutability": "nonpayable",
            "type": "constructor"
        },
        {
            "anonymous": false,
            "inputs": [
                {
                    "indexed": true,
                    "internalType": "address",
                    "name": "owner",
                    "type": "address"
                },
                {
                    "indexed": true,
                    "internalType": "address",
                    "name": "spender",
                    "type": "address"
                },
                {
                    "indexed": false,
                    "internalType": "uint256",
                    "name": "value",
                    "type": "uint256"
                }
            ],
            "name": "Approval",
            "type": "event"
        },
        {
            "anonymous": false,
            "inputs": [
                {
                    "indexed": true,
                    "internalType": "address",
                    "name": "previousOwner",
                    "type": "address"
                },
                {
                    "indexed": true,
                    "internalType": "address",
                    "name": "newOwner",
                    "type": "address"
                }
            ],
            "name": "OwnershipTransferred",
            "type": "event"
        },
        {
            "anonymous": false,
            "inputs": [
                {
                    "indexed": true,
                    "internalType": "address",
                    "name": "from",
                    "type": "address"
                },
                {
                    "indexed": true,
                    "internalType": "address",
                    "name": "to",
                    "type": "address"
                },
                {
                    "indexed": false,
                    "internalType": "uint256",
                    "name": "value",
                    "type": "uint256"
                }
            ],
            "name": "Transfer",
            "type": "event"
        },
        {
            "inputs": [],
            "name": "_cap",
            "outputs": [
                {
                    "internalType": "uint256",
                    "name": "",
                    "type": "uint256"
                }
            ],
            "stateMutability": "view",
            "type": "function"
        },
        {
            "inputs": [],
            "name": "_community_charge",
            "outputs": [
                {
                    "internalType": "uint256",
                    "name": "",
                    "type": "uint256"
                }
            ],
            "stateMutability": "view",
            "type": "function"
        },
        {
            "inputs": [],
            "name": "_ecoSysFee",
            "outputs": [
                {
                    "internalType": "uint256",
                    "name": "",
                    "type": "uint256"
                }
            ],
            "stateMutability": "view",
            "type": "function"
        },
        {
            "inputs": [],
            "name": "_ecoSysWallet",
            "outputs": [
                {
                    "internalType": "address",
                    "name": "",
                    "type": "address"
                }
            ],
            "stateMutability": "view",
            "type": "function"
        },
        {
            "inputs": [
                {
                    "internalType": "address",
                    "name": "",
                    "type": "address"
                }
            ],
            "name": "_isExcludedFromCommunity_charge",
            "outputs": [
                {
                    "internalType": "bool",
                    "name": "",
                    "type": "bool"
                }
            ],
            "stateMutability": "view",
            "type": "function"
        },
        {
            "inputs": [
                {
                    "internalType": "address",
                    "name": "",
                    "type": "address"
                }
            ],
            "name": "_isExcludedFromEcoSysFee",
            "outputs": [
                {
                    "internalType": "bool",
                    "name": "",
                    "type": "bool"
                }
            ],
            "stateMutability": "view",
            "type": "function"
        },
        {
            "inputs": [
                {
                    "internalType": "address",
                    "name": "",
                    "type": "address"
                }
            ],
            "name": "_isExcludedFromReward",
            "outputs": [
                {
                    "internalType": "bool",
                    "name": "",
                    "type": "bool"
                }
            ],
            "stateMutability": "view",
            "type": "function"
        },
        {
            "inputs": [
                {
                    "internalType": "address",
                    "name": "",
                    "type": "address"
                }
            ],
            "name": "_isExcludedFromSurcharge1",
            "outputs": [
                {
                    "internalType": "bool",
                    "name": "",
                    "type": "bool"
                }
            ],
            "stateMutability": "view",
            "type": "function"
        },
        {
            "inputs": [
                {
                    "internalType": "address",
                    "name": "",
                    "type": "address"
                }
            ],
            "name": "_isExcludedFromSurcharge2",
            "outputs": [
                {
                    "internalType": "bool",
                    "name": "",
                    "type": "bool"
                }
            ],
            "stateMutability": "view",
            "type": "function"
        },
        {
            "inputs": [
                {
                    "internalType": "address",
                    "name": "",
                    "type": "address"
                }
            ],
            "name": "_isExcludedFromSurcharge3",
            "outputs": [
                {
                    "internalType": "bool",
                    "name": "",
                    "type": "bool"
                }
            ],
            "stateMutability": "view",
            "type": "function"
        },
        {
            "inputs": [],
            "name": "_maxTxAmount",
            "outputs": [
                {
                    "internalType": "uint256",
                    "name": "",
                    "type": "uint256"
                }
            ],
            "stateMutability": "view",
            "type": "function"
        },
        {
            "inputs": [],
            "name": "_surcharge1",
            "outputs": [
                {
                    "internalType": "uint256",
                    "name": "",
                    "type": "uint256"
                }
            ],
            "stateMutability": "view",
            "type": "function"
        },
        {
            "inputs": [],
            "name": "_surcharge2",
            "outputs": [
                {
                    "internalType": "uint256",
                    "name": "",
                    "type": "uint256"
                }
            ],
            "stateMutability": "view",
            "type": "function"
        },
        {
            "inputs": [],
            "name": "_surcharge3",
            "outputs": [
                {
                    "internalType": "uint256",
                    "name": "",
                    "type": "uint256"
                }
            ],
            "stateMutability": "view",
            "type": "function"
        },
        {
            "inputs": [],
            "name": "_surcharge_1_Wallet",
            "outputs": [
                {
                    "internalType": "address",
                    "name": "",
                    "type": "address"
                }
            ],
            "stateMutability": "view",
            "type": "function"
        },
        {
            "inputs": [],
            "name": "_surcharge_2_Wallet",
            "outputs": [
                {
                    "internalType": "address",
                    "name": "",
                    "type": "address"
                }
            ],
            "stateMutability": "view",
            "type": "function"
        },
        {
            "inputs": [],
            "name": "_surcharge_3_Wallet",
            "outputs": [
                {
                    "internalType": "address",
                    "name": "",
                    "type": "address"
                }
            ],
            "stateMutability": "view",
            "type": "function"
        },
        {
            "inputs": [],
            "name": "_tCommunityChargeTotal",
            "outputs": [
                {
                    "internalType": "uint256",
                    "name": "",
                    "type": "uint256"
                }
            ],
            "stateMutability": "view",
            "type": "function"
        },
        {
            "inputs": [
                {
                    "internalType": "address",
                    "name": "ownerAccount",
                    "type": "address"
                },
                {
                    "internalType": "address",
                    "name": "spender",
                    "type": "address"
                }
            ],
            "name": "allowance",
            "outputs": [
                {
                    "internalType": "uint256",
                    "name": "",
                    "type": "uint256"
                }
            ],
            "stateMutability": "view",
            "type": "function"
        },
        {
            "inputs": [
                {
                    "internalType": "address",
                    "name": "spender",
                    "type": "address"
                },
                {
                    "internalType": "uint256",
                    "name": "amount",
                    "type": "uint256"
                }
            ],
            "name": "approve",
            "outputs": [
                {
                    "internalType": "bool",
                    "name": "",
                    "type": "bool"
                }
            ],
            "stateMutability": "nonpayable",
            "type": "function"
        },
        {
            "inputs": [
                {
                    "internalType": "address",
                    "name": "account",
                    "type": "address"
                }
            ],
            "name": "balanceOf",
            "outputs": [
                {
                    "internalType": "uint256",
                    "name": "",
                    "type": "uint256"
                }
            ],
            "stateMutability": "view",
            "type": "function"
        },
        {
            "inputs": [],
            "name": "decimals",
            "outputs": [
                {
                    "internalType": "uint8",
                    "name": "",
                    "type": "uint8"
                }
            ],
            "stateMutability": "view",
            "type": "function"
        },
        {
            "inputs": [
                {
                    "internalType": "address",
                    "name": "spender",
                    "type": "address"
                },
                {
                    "internalType": "uint256",
                    "name": "subtractedValue",
                    "type": "uint256"
                }
            ],
            "name": "decreaseAllowance",
            "outputs": [
                {
                    "internalType": "bool",
                    "name": "",
                    "type": "bool"
                }
            ],
            "stateMutability": "nonpayable",
            "type": "function"
        },
        {
            "inputs": [
                {
                    "internalType": "address",
                    "name": "account",
                    "type": "address"
                },
                {
                    "internalType": "bool",
                    "name": "communityCharge",
                    "type": "bool"
                },
                {
                    "internalType": "bool",
                    "name": "ecoSysFee",
                    "type": "bool"
                },
                {
                    "internalType": "bool",
                    "name": "surcharge1",
                    "type": "bool"
                },
                {
                    "internalType": "bool",
                    "name": "surcharge2",
                    "type": "bool"
                },
                {
                    "internalType": "bool",
                    "name": "surcharge3",
                    "type": "bool"
                }
            ],
            "name": "excludeFromCharges",
            "outputs": [],
            "stateMutability": "nonpayable",
            "type": "function"
        },
        {
            "inputs": [
                {
                    "internalType": "address",
                    "name": "account",
                    "type": "address"
                }
            ],
            "name": "excludeFromReward",
            "outputs": [],
            "stateMutability": "nonpayable",
            "type": "function"
        },
        {
            "inputs": [
                {
                    "internalType": "address",
                    "name": "spender",
                    "type": "address"
                },
                {
                    "internalType": "uint256",
                    "name": "addedValue",
                    "type": "uint256"
                }
            ],
            "name": "increaseAllowance",
            "outputs": [
                {
                    "internalType": "bool",
                    "name": "",
                    "type": "bool"
                }
            ],
            "stateMutability": "nonpayable",
            "type": "function"
        },
        {
            "inputs": [
                {
                    "internalType": "address",
                    "name": "",
                    "type": "address"
                }
            ],
            "name": "locks",
            "outputs": [
                {
                    "internalType": "uint256",
                    "name": "startTime",
                    "type": "uint256"
                },
                {
                    "internalType": "uint256",
                    "name": "initialLock",
                    "type": "uint256"
                },
                {
                    "internalType": "uint256",
                    "name": "lockedToken",
                    "type": "uint256"
                },
                {
                    "internalType": "uint256",
                    "name": "remainedToken",
                    "type": "uint256"
                },
                {
                    "internalType": "uint256",
                    "name": "monthCount",
                    "type": "uint256"
                }
            ],
            "stateMutability": "view",
            "type": "function"
        },
        {
            "inputs": [],
            "name": "name",
            "outputs": [
                {
                    "internalType": "string",
                    "name": "",
                    "type": "string"
                }
            ],
            "stateMutability": "view",
            "type": "function"
        },
        {
            "inputs": [],
            "name": "owner",
            "outputs": [
                {
                    "internalType": "address",
                    "name": "",
                    "type": "address"
                }
            ],
            "stateMutability": "view",
            "type": "function"
        },
        {
            "inputs": [],
            "name": "renounceOwnership",
            "outputs": [],
            "stateMutability": "nonpayable",
            "type": "function"
        },
        {
            "inputs": [
                {
                    "internalType": "uint256",
                    "name": "community_charge",
                    "type": "uint256"
                },
                {
                    "internalType": "uint256",
                    "name": "ecoSysFee",
                    "type": "uint256"
                },
                {
                    "internalType": "uint256",
                    "name": "surcharge1",
                    "type": "uint256"
                },
                {
                    "internalType": "uint256",
                    "name": "surcharge2",
                    "type": "uint256"
                },
                {
                    "internalType": "uint256",
                    "name": "surcharge3",
                    "type": "uint256"
                }
            ],
            "name": "setCharges",
            "outputs": [],
            "stateMutability": "nonpayable",
            "type": "function"
        },
        {
            "inputs": [
                {
                    "internalType": "uint256",
                    "name": "maxTxPercent",
                    "type": "uint256"
                }
            ],
            "name": "setMaxTxPercent",
            "outputs": [],
            "stateMutability": "nonpayable",
            "type": "function"
        },
        {
            "inputs": [
                {
                    "internalType": "address",
                    "name": "ecoSysWallet",
                    "type": "address"
                },
                {
                    "internalType": "address",
                    "name": "surcharge_1_wallet",
                    "type": "address"
                },
                {
                    "internalType": "address",
                    "name": "surcharge_2_wallet",
                    "type": "address"
                },
                {
                    "internalType": "address",
                    "name": "surcharge_3_wallet",
                    "type": "address"
                }
            ],
            "name": "setServiceWallet",
            "outputs": [],
            "stateMutability": "nonpayable",
            "type": "function"
        },
        {
            "inputs": [],
            "name": "symbol",
            "outputs": [
                {
                    "internalType": "string",
                    "name": "",
                    "type": "string"
                }
            ],
            "stateMutability": "view",
            "type": "function"
        },
        {
            "inputs": [],
            "name": "totalSupply",
            "outputs": [
                {
                    "internalType": "uint256",
                    "name": "",
                    "type": "uint256"
                }
            ],
            "stateMutability": "view",
            "type": "function"
        },
        {
            "inputs": [
                {
                    "internalType": "address",
                    "name": "recipient",
                    "type": "address"
                },
                {
                    "internalType": "uint256",
                    "name": "amount",
                    "type": "uint256"
                }
            ],
            "name": "transfer",
            "outputs": [
                {
                    "internalType": "bool",
                    "name": "",
                    "type": "bool"
                }
            ],
            "stateMutability": "nonpayable",
            "type": "function"
        },
        {
            "inputs": [
                {
                    "internalType": "address",
                    "name": "sender",
                    "type": "address"
                },
                {
                    "internalType": "address",
                    "name": "recipient",
                    "type": "address"
                },
                {
                    "internalType": "uint256",
                    "name": "amount",
                    "type": "uint256"
                }
            ],
            "name": "transferFrom",
            "outputs": [
                {
                    "internalType": "bool",
                    "name": "",
                    "type": "bool"
                }
            ],
            "stateMutability": "nonpayable",
            "type": "function"
        },
        {
            "inputs": [
                {
                    "internalType": "address",
                    "name": "newOwner",
                    "type": "address"
                }
            ],
            "name": "transferOwnership",
            "outputs": [],
            "stateMutability": "nonpayable",
            "type": "function"
        },
        {
            "inputs": [
                {
                    "internalType": "address",
                    "name": "recipient",
                    "type": "address"
                },
                {
                    "internalType": "uint256",
                    "name": "tAmount",
                    "type": "uint256"
                },
                {
                    "internalType": "uint256",
                    "name": "initialLock",
                    "type": "uint256"
                }
            ],
            "name": "transferWithLock",
            "outputs": [],
            "stateMutability": "nonpayable",
            "type": "function"
        },
        {
            "inputs": [
                {
                    "internalType": "address",
                    "name": "target_",
                    "type": "address"
                }
            ],
            "name": "unlock",
            "outputs": [],
            "stateMutability": "nonpayable",
            "type": "function"
        }
    ],
    "bytecode": "0x6080604052620000126009600a62000342565b620000239064037e11d60062000357565b600c819055620000369060001962000379565b62000044906000196200039c565b600e55620000556009600a62000342565b6200006290600362000357565b6014556359682f00601555631dcd650060165560006017556000601855601454601955601554601a55601654601b55601754601c55601854601d55600960ff16600a620000b0919062000342565b620000bf90624c4b4062000357565b601e55348015620000cf57600080fd5b50600080546001600160a01b031916339081178255604051909182917f8be0079c531659141344cd1fd0a4f28419497f9722a3daafe3b4186f6b6457e0908290a350600e543360008181526002602090815260408083209490945581546001600160a01b039081168352600582528483208054600160ff19918216811790925530808652878620805483168417905585548416865260088552878620805483168417905580865287862080548316841790558554841686526009855287862080548316841790558086528786208054831684179055855484168652600a85528786208054831684179055808652878620805483168417905585549093168552600b845286852080548216831790559184528584208054909216179055600c54600d8190559351938452919290917fddf252ad1be2c89b69c2b068fc378daa952ba7f163c4a11628f55a4df523b3ef910160405180910390a3620003b6565b634e487b7160e01b600052601160045260246000fd5b600181815b80851115620002845781600019048211156200026857620002686200022d565b808516156200027657918102915b93841c939080029062000248565b509250929050565b6000826200029d575060016200033c565b81620002ac575060006200033c565b8160018114620002c55760028114620002d057620002f0565b60019150506200033c565b60ff841115620002e457620002e46200022d565b50506001821b6200033c565b5060208310610133831016604e8410600b841016171562000315575081810a6200033c565b62000321838362000243565b80600019048211156200033857620003386200022d565b0290505b92915050565b60006200035083836200028c565b9392505050565b60008160001904831182151516156200037457620003746200022d565b500290565b6000826200039757634e487b7160e01b600052601260045260246000fd5b500690565b600082821015620003b157620003b16200022d565b500390565b612b6480620003c66000396000f3fe608060405234801561001057600080fd5b50600436106102485760003560e01c806370a082311161013b578063a9059cbb116100b8578063dd62ed3e1161007c578063dd62ed3e146105af578063de6baccb146105e8578063f2fde38b146105fb578063f53d1d521461060e578063faef56121461062157600080fd5b8063a9059cbb1461053a578063b5b977ce1461054d578063c098202314610570578063d543dbeb14610579578063dc3b4e091461058c57600080fd5b80638da5cb5b116100ff5780638da5cb5b146104ce5780638dd7eaf6146104df57806395d89b41146104f257806398936f8814610514578063a457c2d71461052757600080fd5b806370a082311461047e578063715018a6146104915780637d1db4a5146104995780637faa7083146104a25780638d9ab7c0146104ab57600080fd5b8063313ce567116101c95780633f5159451161018d5780633f515945146103c757806347d03471146103ea5780634e94325d146103f357806352390c02146104065780635de9a1371461041957600080fd5b8063313ce5671461034157806336377f831461035b578063395093511461036e5780633a0a0d8a146103815780633c6ca5c1146103a457600080fd5b80631bfde2bf116102105780631bfde2bf146102de57806323b872dd146102e75780632b3ab9a7146102fa5780632f17367b146103255780632f6c493c1461032e57600080fd5b8063060cf4e81461024d57806306fdde0314610269578063095ea7b31461029e57806318160ddd146102c15780631966a277146102c9575b600080fd5b610256600d5481565b6040519081526020015b60405180910390f35b610291604051806040016040528060098152602001684669646f204d65746160b81b81525081565b6040516102609190612689565b6102b16102ac3660046126fa565b61062a565b6040519015158152602001610260565b600c54610256565b6102dc6102d7366004612724565b610641565b005b61025660145481565b6102b16102f5366004612778565b610880565b60115461030d906001600160a01b031681565b6040516001600160a01b039091168152602001610260565b61025660165481565b6102dc61033c3660046127b4565b610914565b610349600981565b60405160ff9091168152602001610260565b60135461030d906001600160a01b031681565b6102b161037c3660046126fa565b610bfc565b6102b161038f3660046127b4565b60096020526000908152604090205460ff1681565b6102b16103b23660046127b4565b60066020526000908152604090205460ff1681565b6102b16103d53660046127b4565b60086020526000908152604090205460ff1681565b61025660155481565b60105461030d906001600160a01b031681565b6102dc6104143660046127b4565b610c33565b6104566104273660046127b4565b601f60205260009081526040902080546001820154600283015460038401546004909401549293919290919085565b604080519586526020860194909452928401919091526060830152608082015260a001610260565b61025661048c3660046127b4565b610d86565b6102dc610de5565b610256601e5481565b610256600f5481565b6102b16104b93660046127b4565b60056020526000908152604090205460ff1681565b6000546001600160a01b031661030d565b60125461030d906001600160a01b031681565b61029160405180604001604052806003815260200162464d4360e81b81525081565b6102dc6105223660046127cf565b610e59565b6102b16105353660046126fa565b6111b4565b6102b16105483660046126fa565b61126b565b6102b161055b3660046127b4565b600a6020526000908152604090205460ff1681565b61025660175481565b6102dc61058736600461280a565b611279565b6102b161059a3660046127b4565b600b6020526000908152604090205460ff1681565b6102566105bd366004612823565b6001600160a01b03918216600090815260046020908152604080832093909416825291909152205490565b6102dc6105f6366004612856565b6112c3565b6102dc6106093660046127b4565b61141a565b6102dc61061c366004612899565b611504565b61025660185481565b60006106373384846115b1565b5060015b92915050565b6000546001600160a01b031633146106745760405162461bcd60e51b815260040161066b9061290d565b60405180910390fd5b6001600160a01b0384166106d65760405162461bcd60e51b8152602060048201526024808201527f45636f73797374656d2077616c6c65742077616c6c6574206973206e6f742076604482015263185b1a5960e21b606482015260840161066b565b601080546001600160a01b038087166001600160a01b031992831681179093556011805487831690841617905560128054868316908416179055601380549185169190921617905561072d90600180808080611504565b601154610748906001600160a01b0316600180808080611504565b601254610763906001600160a01b0316600180808080611504565b60135461077e906001600160a01b0316600180808080611504565b5050601080546001600160a01b039081166000908152600660205260408082208054600160ff19918216811790925560118054861685528385208054831684179055601280548716865284862080548416851790556013805488168752948620805490931684179092559554600780548085018255958190527fa66cc928b5edb82af9bd49922954155ab7b0942694bea4ce44661d9a8736c68895860180549288166001600160a01b031993841617905596548754808501895586018054918816918316919091179055905486548084018855850180549187169183169190911790559154855491820190955590910180549390921692169190911790555050565b600061088d8484846116d6565b6001600160a01b038416600090815260046020908152604080832033845290915290205482106108cf5760405162461bcd60e51b815260040161066b90612942565b6001600160a01b03841660009081526004602090815260408083203380855292529091205461090a91869161090590869061299d565b6115b1565b5060019392505050565b6001600160a01b0381166109795760405162461bcd60e51b815260206004820152602660248201527f54617267657420616464726573732063616e206e6f74206265207a65726f206160448201526564647265737360d01b606482015260840161066b565b6001600160a01b0381166000908152601f60205260409020805460028201546003830154600484015460019094015492939192909190826109fc5760405162461bcd60e51b815260206004820152601760248201527f416c6c20746f6b656e732061726520756e6c6f636b6564000000000000000000604482015260640161066b565b610a0981620151806129b4565b610a1390866129d3565b4211610a615760405162461bcd60e51b815260206004820152601e60248201527f556e4c6f636b696e6720706572696f64206973206e6f74206f70656e65640000604482015260640161066b565b6000610a7082620151806129b4565b610a7a90876129d3565b610a84904261299d565b9050600062278d00610a9760018261299d565b610aa190846129d3565b610aab91906129eb565b90506005811115610aba575060055b6000610ac6858361299d565b90506005811115610ad5575060055b60008111610b335760405162461bcd60e51b815260206004820152602560248201527f52656c65617361626c6520746f6b656e2074696c6c206e6f772069732072656c60448201526419585cd95960da1b606482015260840161066b565b60006064610b428360146129b4565b610b4c908a6129b4565b610b5691906129eb565b6001600160a01b038b166000908152601f6020526040812060040180549293508492909190610b869084906129d3565b90915550610b969050818861299d565b6001600160a01b038b166000908152601f60205260409020600301819055965086610bf0576001600160a01b038a166000908152601f60205260408120818155600181018290556002810182905560038101829055600401555b50505050505050505050565b3360008181526004602090815260408083206001600160a01b038716845290915281205490916106379185906109059086906129d3565b6000546001600160a01b03163314610c5d5760405162461bcd60e51b815260040161066b9061290d565b6001600160a01b03811660009081526006602052604090205460ff1615610cc65760405162461bcd60e51b815260206004820152601b60248201527f4163636f756e7420697320616c7265616479206578636c756465640000000000604482015260640161066b565b6001600160a01b03811660009081526002602052604090205415610d20576001600160a01b038116600090815260026020526040902054610d06906119d7565b6001600160a01b0382166000908152600360205260409020555b6001600160a01b03166000818152600660205260408120805460ff191660019081179091556007805491820181559091527fa66cc928b5edb82af9bd49922954155ab7b0942694bea4ce44661d9a8736c6880180546001600160a01b0319169091179055565b6001600160a01b03811660009081526006602052604081205460ff1615610dc357506001600160a01b031660009081526003602052604090205490565b6001600160a01b03821660009081526002602052604090205461063b906119d7565b6000546001600160a01b03163314610e0f5760405162461bcd60e51b815260040161066b9061290d565b600080546040516001600160a01b03909116907f8be0079c531659141344cd1fd0a4f28419497f9722a3daafe3b4186f6b6457e0908390a3600080546001600160a01b0319169055565b6000546001600160a01b03163314610e835760405162461bcd60e51b815260040161066b9061290d565b610e8f6009600a612af1565b610e9a9060646129b4565b818385610ea7888a6129d3565b610eb191906129d3565b610ebb91906129d3565b610ec591906129d3565b1115610f275760405162461bcd60e51b815260206004820152602b60248201527f53756d206f6620616c6c20636861726765732073686f756c64206265206c657360448201526a73207468616e203130302560a81b606482015260840161066b565b610f336009600a612af1565b610f3e9060646129b4565b851115610faa5760405162461bcd60e51b815260206004820152603460248201527f436f6d6d756e6974792043686172676520252073686f756c64206265206c657360448201527373207468616e20657175616c20746f203130302560601b606482015260840161066b565b610fb66009600a612af1565b610fc19060646129b4565b8411156110265760405162461bcd60e51b815260206004820152602d60248201527f45636f53797346656520252073686f756c64206265206c657373207468616e2060448201526c657175616c20746f203130302560981b606482015260840161066b565b6110326009600a612af1565b61103d9060646129b4565b8311156110a35760405162461bcd60e51b815260206004820152602e60248201527f7375726368617267653120252073686f756c64206265206c657373207468616e60448201526d20657175616c20746f203130302560901b606482015260840161066b565b6110af6009600a612af1565b6110ba9060646129b4565b8211156111205760405162461bcd60e51b815260206004820152602e60248201527f7375726368617267653220252073686f756c64206265206c657373207468616e60448201526d20657175616c20746f203130302560901b606482015260840161066b565b61112c6009600a612af1565b6111379060646129b4565b81111561119d5760405162461bcd60e51b815260206004820152602e60248201527f7375726368617267653320252073686f756c64206265206c657373207468616e60448201526d20657175616c20746f203130302560901b606482015260840161066b565b601494909455601592909255601655601755601855565b3360009081526004602090815260408083206001600160a01b03861684529091528120548210156112355760405162461bcd60e51b815260206004820152602560248201527f42455032303a2064656372656173656420616c6c6f77616e63652062656c6f77604482015264207a65726f60d81b606482015260840161066b565b3360008181526004602090815260408083206001600160a01b03881684529091529020546106379190859061090590869061299d565b6000610637335b84846116d6565b6000546001600160a01b031633146112a35760405162461bcd60e51b815260040161066b9061290d565b606481600c546112b391906129b4565b6112bd91906129eb565b601e5550565b6000546001600160a01b031633146112ed5760405162461bcd60e51b815260040161066b9061290d565b6001600160a01b0383166113345760405162461bcd60e51b815260206004820152600e60248201526d125b9d985b1a59081d185c99d95d60921b604482015260640161066b565b6001600160a01b0383166000908152601f6020526040902060020154156113af5760405162461bcd60e51b815260206004820152602960248201527f54686973206164647265737320697320616c726561647920696e2076657374696044820152681b99c81c195c9a5bd960ba1b606482015260840161066b565b6113b833611272565b6040805160a0810182524281526020808201938452818301858152606083019586526000608084018181526001600160a01b039098168152601f9092529290209051815591516001830155516002820155905160038201559051600490910155565b6000546001600160a01b031633146114445760405162461bcd60e51b815260040161066b9061290d565b6001600160a01b0381166114a95760405162461bcd60e51b815260206004820152602660248201527f4f776e61626c653a206e6577206f776e657220697320746865207a65726f206160448201526564647265737360d01b606482015260840161066b565b600080546040516001600160a01b03808516939216917f8be0079c531659141344cd1fd0a4f28419497f9722a3daafe3b4186f6b6457e091a3600080546001600160a01b0319166001600160a01b0392909216919091179055565b6000546001600160a01b0316331461152e5760405162461bcd60e51b815260040161066b9061290d565b6001600160a01b039095166000908152600560209081526040808320805497151560ff199889161790556008825280832080549615159688169690961790955560098152848220805494151594871694909417909355600a8352838120805492151592861692909217909155600b90915220805492151592909116919091179055565b6001600160a01b0383166116135760405162461bcd60e51b8152602060048201526024808201527f42455032303a20617070726f76652066726f6d20746865207a65726f206164646044820152637265737360e01b606482015260840161066b565b6001600160a01b0382166116745760405162461bcd60e51b815260206004820152602260248201527f42455032303a20617070726f766520746f20746865207a65726f206164647265604482015261737360f01b606482015260840161066b565b6001600160a01b0383811660008181526004602090815260408083209487168084529482529182902085905590518481527f8c5be1e5ebec7d5bd14f71427d1e84f3dd0314c0f7b2291e5b200ac8c7c3b92591015b60405180910390a3505050565b6001600160a01b0383166116fc5760405162461bcd60e51b815260040161066b90612942565b6001600160a01b03821661175e5760405162461bcd60e51b815260206004820152602360248201527f42455032303a207472616e7366657220746f20746865207a65726f206164647260448201526265737360e81b606482015260840161066b565b816001600160a01b0316836001600160a01b031614156117b15760405162461bcd60e51b815260206004820152600e60248201526d125b9d985b1a59081d185c99d95d60921b604482015260640161066b565b6000546001600160a01b038481169116148015906117dd57506000546001600160a01b03838116911614155b1561184557601e548111156118455760405162461bcd60e51b815260206004820152602860248201527f5472616e7366657220616d6f756e74206578636565647320746865206d6178546044820152673c20b6b7bab73a1760c11b606482015260840161066b565b6001600160a01b0383166000908152601f6020526040902060020154156118f5576001600160a01b0383166000908152601f602052604081206003015461188b85610d86565b611895919061299d565b9050808211156118f35760405162461bcd60e51b815260206004820152602360248201527f4e6f7420656e6f75676820556e6c6f636b656420746f6b656e20417661696c61604482015262626c6560e81b606482015260840161066b565b505b6001600160a01b038316600090815260056020526040902054600190819081908190819060ff161561192657600094505b6001600160a01b03881660009081526008602052604090205460ff161561194c57600093505b6001600160a01b03881660009081526009602052604090205460ff161561197257600092505b6001600160a01b0388166000908152600a602052604090205460ff161561199857600091505b6001600160a01b0388166000908152600b602052604090205460ff16156119bd575060005b6119cd8888888888888888611a5b565b5050505050505050565b6000600e54821115611a3e5760405162461bcd60e51b815260206004820152602a60248201527f416d6f756e74206d757374206265206c657373207468616e20746f74616c207260448201526965666c656374696f6e7360b01b606482015260840161066b565b6000611a48611c49565b9050611a5481846129eb565b9392505050565b84611a6c5760148054601955600090555b83611a7d5760158054601a55600090555b82611a8e5760168054601b55600090555b81611a9f5760178054601c55600090555b80611ab05760188054601d55600090555b6001600160a01b03881660009081526006602052604090205460ff168015611af157506001600160a01b03871660009081526006602052604090205460ff16155b15611b0657611b01888888611c6c565b611c04565b6001600160a01b03881660009081526006602052604090205460ff16158015611b4757506001600160a01b03871660009081526006602052604090205460ff165b15611b5757611b01888888611cfc565b6001600160a01b03881660009081526006602052604090205460ff16158015611b9957506001600160a01b03871660009081526006602052604090205460ff16155b15611ba957611b01888888611d8f565b6001600160a01b03881660009081526006602052604090205460ff168015611be957506001600160a01b03871660009081526006602052604090205460ff165b15611bf957611b01888888611dc1565b611c04888888611d8f565b84611c10576019546014555b83611c1c57601a546015555b82611c2857601b546016555b81611c3457601c546017555b806119cd57601d546018555050505050505050565b6000806000611c56611e27565b9092509050611c6581836129eb565b9250505090565b6000611c7782611fb0565b6001600160a01b038516600090815260036020526040902054909150611c9e90839061299d565b6001600160a01b0385166000908152600360209081526040808320939093558351600290915291902054611cd2919061299d565b6001600160a01b038516600090815260026020526040902055611cf681858561211d565b50505050565b6000611d0782611fb0565b80516001600160a01b038616600090815260026020526040902054919250611d2e9161299d565b6001600160a01b0380861660009081526002602090815260408083209490945560608501519287168252600390529190912054611d6b91906129d3565b6001600160a01b038416600090815260036020526040902055611cf681858561211d565b6000611d9a82611fb0565b80516001600160a01b038616600090815260026020526040902054919250611cd29161299d565b6000611dcc82611fb0565b6001600160a01b038516600090815260036020526040902054909150611df390839061299d565b6001600160a01b0385166000908152600360209081526040808320939093558351600290915291902054611d2e919061299d565b600e54600c5460075460009283929091835b81811015611f7d57836002600060078481548110611e5957611e59612afd565b60009182526020808320909101546001600160a01b031683528201929092526040019020541180611ec45750826003600060078481548110611e9d57611e9d612afd565b60009182526020808320909101546001600160a01b03168352820192909252604001902054115b15611edb57600e54600c5495509550505050509091565b6002600060078381548110611ef257611ef2612afd565b60009182526020808320909101546001600160a01b03168352820192909252604001902054611f21908561299d565b93506003600060078381548110611f3a57611f3a612afd565b60009182526020808320909101546001600160a01b03168352820192909252604001902054611f69908461299d565b925080611f7581612b13565b915050611e39565b50600c54600e54611f8e91906129eb565b831015611fa657600e54600c54945094505050509091565b5090939092509050565b611fff6040518061012001604052806000815260200160008152602001600081526020016000815260200160008152602001600081526020016000815260200160008152602001600081525090565b6000612009611c49565b90506000612016846121dc565b9050600080600061202c87856020015187612330565b925092509250600085856040015161204491906129b4565b9050600086866060015161205891906129b4565b9050600087876080015161206c91906129b4565b90506000888860a0015161208091906129b4565b905080828461208f878a61299d565b612099919061299d565b6120a3919061299d565b6120ad919061299d565b955060006040518061012001604052808981526020018881526020018781526020018a6000015181526020018a6020015181526020018a6040015181526020018a6060015181526020018a6080015181526020018a60a001518152509050809a5050505050505050505050919050565b6020808401516001600160a01b0383166000908152600290925260409091205461214791906129d3565b6001600160a01b03821660009081526002602052604090205560a083015160c084015160e08501516101008601516121819392919061236c565b61219383604001518460800151612663565b806001600160a01b0316826001600160a01b03167fddf252ad1be2c89b69c2b068fc378daa952ba7f163c4a11628f55a4df523b3ef85606001516040516116c991815260200190565b6122156040518060c001604052806000815260200160008152602001600081526020016000815260200160008152602001600081525090565b600064174876e8006014548461222b91906129b4565b61223591906129eb565b9050600064174876e8006015548561224d91906129b4565b61225791906129eb565b9050600064174876e8006016548661226f91906129b4565b61227991906129eb565b9050600064174876e8006017548761229191906129b4565b61229b91906129eb565b9050600064174876e800601854886122b391906129b4565b6122bd91906129eb565b90506000846122cc878a61299d565b6122d6919061299d565b9050600082846122e6878561299d565b6122f0919061299d565b6122fa919061299d565b6040805160c081018252918252602082019890985296870195909552506060850192909252608084015260a08301525092915050565b600080808061233f85886129b4565b9050600061234d86886129b4565b9050600061235b828461299d565b929992985090965090945050505050565b6000612376611c49565b9050841561243157600061238a82876129b4565b6010546001600160a01b03166000908152600260205260409020549091506123b39082906129d3565b601080546001600160a01b03908116600090815260026020908152604080832095909555925490911681526008909152205460ff161561242f576010546001600160a01b03166000908152600360205260409020546124139087906129d3565b6010546001600160a01b03166000908152600360205260409020555b505b83156124ea57600061244382866129b4565b6011546001600160a01b031660009081526002602052604090205490915061246c9082906129d3565b601180546001600160a01b03908116600090815260026020908152604080832095909555925490911681526009909152205460ff16156124e8576011546001600160a01b03166000908152600360205260409020546124cc9086906129d3565b6011546001600160a01b03166000908152600360205260409020555b505b82156125a35760006124fc82856129b4565b6012546001600160a01b03166000908152600260205260409020549091506125259082906129d3565b601280546001600160a01b03908116600090815260026020908152604080832095909555925490911681526009909152205460ff16156125a1576012546001600160a01b03166000908152600360205260409020546125859085906129d3565b6012546001600160a01b03166000908152600360205260409020555b505b811561265c5760006125b582846129b4565b6013546001600160a01b03166000908152600260205260409020549091506125de9082906129d3565b601380546001600160a01b0390811660009081526002602090815260408083209590955592549091168152600b909152205460ff161561265a576013546001600160a01b031660009081526003602052604090205461263e9084906129d3565b6013546001600160a01b03166000908152600360205260409020555b505b5050505050565b81600e54612671919061299d565b600e55600f546126829082906129d3565b600f555050565b600060208083528351808285015260005b818110156126b65785810183015185820160400152820161269a565b818111156126c8576000604083870101525b50601f01601f1916929092016040019392505050565b80356001600160a01b03811681146126f557600080fd5b919050565b6000806040838503121561270d57600080fd5b612716836126de565b946020939093013593505050565b6000806000806080858703121561273a57600080fd5b612743856126de565b9350612751602086016126de565b925061275f604086016126de565b915061276d606086016126de565b905092959194509250565b60008060006060848603121561278d57600080fd5b612796846126de565b92506127a4602085016126de565b9150604084013590509250925092565b6000602082840312156127c657600080fd5b611a54826126de565b600080600080600060a086880312156127e757600080fd5b505083359560208501359550604085013594606081013594506080013592509050565b60006020828403121561281c57600080fd5b5035919050565b6000806040838503121561283657600080fd5b61283f836126de565b915061284d602084016126de565b90509250929050565b60008060006060848603121561286b57600080fd5b612874846126de565b95602085013595506040909401359392505050565b803580151581146126f557600080fd5b60008060008060008060c087890312156128b257600080fd5b6128bb876126de565b95506128c960208801612889565b94506128d760408801612889565b93506128e560608801612889565b92506128f360808801612889565b915061290160a08801612889565b90509295509295509295565b6020808252818101527f4f776e61626c653a2063616c6c6572206973206e6f7420746865206f776e6572604082015260600190565b60208082526025908201527f42455032303a207472616e736665722066726f6d20746865207a65726f206164604082015264647265737360d81b606082015260800190565b634e487b7160e01b600052601160045260246000fd5b6000828210156129af576129af612987565b500390565b60008160001904831182151516156129ce576129ce612987565b500290565b600082198211156129e6576129e6612987565b500190565b600082612a0857634e487b7160e01b600052601260045260246000fd5b500490565b600181815b80851115612a48578160001904821115612a2e57612a2e612987565b80851615612a3b57918102915b93841c9390800290612a12565b509250929050565b600082612a5f5750600161063b565b81612a6c5750600061063b565b8160018114612a825760028114612a8c57612aa8565b600191505061063b565b60ff841115612a9d57612a9d612987565b50506001821b61063b565b5060208310610133831016604e8410600b8410161715612acb575081810a61063b565b612ad58383612a0d565b8060001904821115612ae957612ae9612987565b029392505050565b6000611a548383612a50565b634e487b7160e01b600052603260045260246000fd5b6000600019821415612b2757612b27612987565b506001019056fea26469706673582212206ea8f207e7df4409d4a9e251698471c5fa088ddf18ca801ed99f5b61c742b86b64736f6c634300080b0033",
    "linkReferences": {},
    "deployedLinkReferences": {}
}